S00E00005753323831322E737265639F
S11300000C9454000C9471000C9471000C947100C5
S11300100C9471000C9471000C9471000C94710098
S11300200C9471000C9471000C9471000C94710088
S11300300C9471000C9471000C9471000C94710078
S11300400C94CC010C9471000C9471000C9471000C
S11300500C9471000C9471000C9471000C94710058
S11300600C9471000C94710001020408102040806B
S113007001020408102001020408102004040404EE
S1130080040404040202020202020303030303033E
S113009000000000250028002B00000000002400C0
S11300A027002A0087008C0011241FBECFEFD8E060
S11300B0DEBFCDBF21E0A0E0B1E001C01D92AF31B1
S11300C0B207E1F710E0C3E5D0E004C02197FE01D8
S11300D00E94B202C235D107C9F70E94BD010C9437
S11300E0B8020C94000008950F936BE080E091E057
S11300F00E94F80002E322E342E360E080E091E042
S11301000E94DB0080E091E00F910C9463016CE0AD
S113011080E091E00C94C10080E091E00C949000A8
S11301200895DC01643158F5862F262F30E0F9015B
S1130130E859FF4FE491EC9324583F4FF90194910F
S1130140E92FF0E0EE0FFF1FE057FF4F4591549168
S113015012965C934E931197F9012491E22FF0E0EB
S1130160EE0FFF1FE656FF4F2591349114963C93F2
S11301702E93139761E00E94760280E0089581E057
S11301800895CF93DF93EC010E9491008FEF8E8747
S11301901F86188A198A1A8AFE01359689E0DF01BA
S11301A01D928A95E9F71D8A81E08B8B82E08C8B06
S11301B0DF91CF9108950F93FC016330B0F48389EC
S11301C0DF01A60FB11DBD01A80FB11D15964C93FB
S11301D08489DB01A80FB11D15962C938589FB0139
S11301E0E80FF11D058380E001C081E00F910895BF
S11301F0FC01668780E00895CF93DF93FC0180E0E3
S113020090E084179507C0F52389DC01A20FB11D86
S11302109D01DF01A20FB31F1596AC91B685EB01CA
S1130220C20FD31FAB9FD0011124B8832489DC01F2
S1130230A20FB11D9D01DF01A20FB31F1596AC9152
S1130240B685EB01C20FD31FAB9FD0011124B88335
S11302502589DC01A20FB11D9D01DF01A20FB31F8F
S11302601596AC91B685EB01C20FD31FAB9FD0019D
S11302701124B8830396C5CFDF91CF9108953FB77A
S1130280F894FC012081A181B2819C91822F8095F8
S113029098238C91822BFB01460F571FE417F50717
S11302A081F0219168E08C9300C027FF9C93220F7A
S11302B000C000C000C008F49C9300C06A9599F780
S11302C0EDCF3FBF0895CF92DF92EF92FF920F934D
S11302D01F93CF93DF93CDB7DEB729970FB6F8946A
S11302E0DEBF0FBECDBF8C010E941602F801C78489
S11302F0D088E188F288DC01CB018C199D09AE0914
S1130300BF09C397A105B10530F4CD28CE28CF2865
S113031011F081E022C0F80186858F3F71F049E039
S113032050E0BE016F5F7F4FC8010E94FC0049E0AE
S113033050E0BE016F5F7F4F05C049E050E0B80157
S11303406B5F7F4FC8010E943F010E941602F801B3
S11303506787708B818B928B80E029960FB6F89417
S1130360DEBF0FBECDBFDF91CF911F910F91FF90E4
S1130370EF90DF90CF90089508950E943B020E9471
S1130380BC010E947300C0E0D0E00E94740020977A
S1130390E1F30E940000F9CF1F920F920FB60F9263
S11303A011242F933F938F939F93AF93BF93809187
S11303B0170190911801A0911901B0911A0130917F
S11303C0160123E0230F2D3720F40196A11DB11D42
S11303D005C026E8230F0296A11DB11D2093160126
S11303E08093170190931801A0931901B0931A01F7
S11303F080911B0190911C01A0911D01B0911E01DF
S11304000196A11DB11D80931B0190931C01A09323
S11304101D01B0931E01BF91AF919F918F913F91A8
S11304202F910F900FBE0F901F9018953FB7F8941F
S113043080911B0190911C01A0911D01B0911E019E
S113044026B5A89B05C02F3F19F00196A11DB11D2B
S11304503FBFBA2FA92F982F8827820F911DA11D66
S1130460B11DBC01CD0142E0660F771F881F991FA3
S11304704A95D1F70895789484B5826084BD84B593
S1130480816084BD85B5826085BD85B5816085BD8B
S1130490EEE6F0E0808181608083E1E8F0E01082A4
S11304A0808182608083808181608083E0E8F0E0E5
S11304B0808181608083E1EBF0E0808184608083CF
S11304C0E0EBF0E0808181608083EAE7F0E0808106
S11304D08460808380818260808380818160808366
S11304E08081806880831092C1000895CF93DF9348
S11304F090E0FC01E859FF4F2491FC01E458FF4FC0
S11305008491882361F190E0880F991FFC01E656DD
S1130510FF4FC591D491FC01E057FF4FA591B491D1
S1130520611109C09FB7F89488812095822388833C
S1130530EC912E230BC0623061F49FB7F89488814C
S1130540322F309583238883EC912E2B2C939FBFDD
S113055006C08FB7F894E8812E2B28838FBFDF91D4
S1130560CF910895EE0FFF1F0590F491E02D0994AB
S113057010E0C3E5D0E004C0FE010E94B20221965F
S10D0580C435D107C9F7F894FFCF82
S9030000FC
