S0110000576F7264636C6F636B2E737265636B
S11300000C940D010C942A010C942A010C942A01DD
S11300100C942A010C942A010C942A010C942A01B0
S11300200C942A010C942A010C942A010C942A01A0
S11300300C942A010C942A010C942A010C942A0190
S11300400C94A0040C942A010C942A010C942A0107
S11300500C942A010C942A010C942A010C942A0170
S11300600C942A010C942A010000000000010003F2
S11300700A000100040A000100080A000101040B3F
S11300800C0101030B0C01010C00000101030A0C1B
S11300900101040A0C0101080B000101040B000119
S11300A001030B0000000000000100030A0001002E
S11300B0040A0001010800000101040B0C01010302
S11300C00B0C01010C00000101030A0C0101040ADC
S11300D00C01010900000101040B000101030B00E4
S11300E000000000000100030A000100040A0001EE
S11300F000080A000100050A000101030B0C0101BC
S11301000C00000101030A0C0101050B00010108A8
S11301100B000101040B000101030B0000000000AF
S1130120000100030A000100040A000101080000A4
S11301300100050A000101030B0C01010C00000180
S113014001030A0C0101050B000101090000010172
S1130150040B000101030B000D1A0F1A0E1A121AD8
S1130160161A131A191A111A171A151A181A141A10
S11301700D0010000E0012001600130019001100EB
S1130180170015001800140000000000000200030E
S1130190030007040100040104070200040204042C
S11301A002040702000B0302040306030400040410
S11301B005050500040502030502040505060601FC
S11301C004060704070003070304070704080104DF
S11301D00805040901050908030102040810204068
S11301E08001020408102001020408102004040401
S11301F004040404040202020202020303030303CC
S11302000300000000250028002B0000000000244B
S11302100027002A00003B01490111241FBECFEF33
S1130220D8E0DEBFCDBF22E0A0E0B1E001C01D9266
S1130230A536B207E1F711E0CCE0D1E004C0219784
S1130240FE010E949205CB30D107C9F70E949104A8
S11302500C94A1050C94000008954EE161E180E046
S113026091E00E94CB0184E091E00E94670483E066
S113027091E00C94130324E144E164E183E091E010
S11302800E94570240E063E071E080E091E00C944A
S1130290510180E091E00E94560183E091E00C94CA
S11302A07C02FC0171836083428308950895EF9278
S11302B0FF920F931F93CF93DF93CDB7DEB72A97A7
S11302C00FB6F894DEBF0FBECDBFFC01F62E890138
S11302D027E181E0261708F451C04C3308F04EC0E2
S11302E0D8018C9395E0E92E842F6E2D0E9486050B
S11302F0282F9281BCE39B9FC0011124E29E800DB4
S1130300911D1124BC0168597F4F45E050E0CE0196
S113031006960E949805FE013696DE01119601901C
S11303200D92EA94E1F789819A813C812D814B8178
S1130330F801438334832583FBE0FF1510F424EF95
S1130340F20E9F0D9C3008F09C503CE0839FB0015E
S11303501124690F711D660F771F685A7E4F42E0A2
S113036050E0CE0106960E9498059E818F81D801A7
S113037011969C93119712968C9380E02A960FB64F
S1130380F894DEBF0FBECDBFDF91CF911F910F91C7
S1130390FF90EF900895AF92BF92CF92DF92EF92C9
S11303A0FF921F93CF93DF9300D000D000D0CDB73E
S11303B0DEB76C019E012F5F3F4F0E94570111E091
S11303C0813009F010E089818823A1F040E061E0E8
S11303D0F601808191810E949C02813009F411E030
S11303E040E062E0F601808191810E949C028130AC
S11303F009F411E05E01F2E0AF0EB11C7E0184E06D
S1130400E80EF11CF50161915F01662361F040E0A3
S1130410F601808191810E949C02813009F411E0EF
S1130420AE14BF0479F75E01F7E0AF0EB11CF7011B
S113043061917F01662361F040E0F6018081918142
S11304400E949C02813009F411E0EA14FB0479F75C
S1130450812F26960FB6F894DEBF0FBECDBFDF9175
S1130460CF911F91FF90EF90DF90CF90BF90AF900E
S11304700895CF93DF9300D01F92CDB7DEB790E0FD
S1130480BC01660F771F860F971FBC0168577E4F0C
S113049043E050E0CE0101960E94980569817A817B
S11304A08B810F900F900F90DF91CF910895EF9271
S11304B0FF921F93CF93DF9300D0CDB7DEB77C01BB
S11304C0162F6AE001962A8349830E944C03F701A0
S11304D0EA5AFE4F108331964981408331962A812E
S11304E0208381E0F70180830F900F90DF91CF91FB
S11304F01F91FF90EF90089501960C942A0340FDFC
S113050002C0862F02C08AE0861B9BE0499F800DB3
S113051011240895CF93DF93EC010E947F02FE0122
S1130520EA5AFE4F208131814281682FCE01019623
S1130530DF91CF910C947203DF92EF92FF920F93AD
S11305401F93CF93DF9300D0CDB7DEB77C01142F78
S11305506B31D0F4862F0E943902062F111101C08D
S1130560182FD12C20E0D11681F0402F6D2D670F6C
S1130570C70129837A830E948A0229817A81813082
S113058009F421E0D394EFCF21E0822F0F900F9054
S1130590DF91CF911F910F91FF90EF90DF9008951D
S11305A00F93CF93DF93EC010E947F0200E020E0E1
S11305B040E0682FCE0101960E949303DF91CF9112
S11305C00F910895DF92EF92FF920F931F93CF93B1
S11305D0DF9300D0CDB7DEB76B31C8F48C01862F22
S11305E00E943902E62EF82ED12C20E0DF1480F48C
S11305F04E2D6D2D670FC80129837A830E94D00286
S113060029817A81813009F421E0D394EFCF21E06C
S1130610822F0F900F90DF91CF911F910F91FF9038
S1130620EF90DF9008950F931F93CF93DF938C0186
S1130630C1E0D0E06C2FC8010E94E202813009F4CD
S1130640D1E0CF5FCB31B1F78D2FDF91CF911F91E7
S11306500F9108950895DC016431E0F4862F262F6C
S113066030E0F901E752FE4FE491EC93F901E351D4
S1130670FE4FE491F0E0EE0FFF1FEF5FFD4F259179
S1130680349112963C932E93119761E00E944A058F
S113069080E0089581E00895CF93DF93EC010E94F8
S11306A02B03FE01E35BFE4F8FEF808331961082B4
S11306B0118212821382EB54F1408AE491E0DF014B
S11306C09C011D9221503040E1F7EF5AFE4F1082F9
S11306D0329781E08083CD5ADE4F82E08883DF91B8
S11306E0CF9108956E36E8F4FC01EE5AFE4F508126
S11306F0FC01E60FF11DBF01E50FF11D2383FC0191
S1130700ED5AFE4F2081FB01E20FF11D3383FC0102
S1130710EC5AFE4F8081FB01E80FF11D438380E01A
S1130720089581E008950F936E36E8F4FC01EE5AC3
S1130730FE4F3081FC01E60FF11DBF01E30FF11DF7
S11307404383FC01ED5AFE4F3081FB01E30FF11DA1
S11307502383FC01EC5AFE4F8081FB01E80FF11D5D
S1130760038380E001C081E00F910895FC012FB75D
S1130770F8949081A181B2813C91892F8095832343
S11307803C91932BFB01460F571FE417F50781F0AB
S1130790319168E09C9300C037FF8C93330F00C005
S11307A000C000C008F48C9300C06A9599F7EDCF9F
S11307B02FBF0895CF92DF92EF92FF920F931F9372
S11307C0CF93DF93CDB7DEB7CA54D1400FB6F894B8
S11307D0DEBF0FBECDBF8C01FC01E35BFE4F408149
S11307E04F3F09F452C03596A081B0E03196E081C4
S11307F0CE2ED12C8C5A9E4FFC01608170E080E09B
S113080090E09C012A0F3B1F7801E20EF31EF701D2
S1130810E380E1E0F0E0EC0FFD1F2E0F3F1FE49EAC
S113082070011124F901F0829C012C0D3D1D780109
S1130830E20EF31EF701E380E1E0F0E0EC0FFD1FB0
S11308402E0F3F1FE49E70011124F901F0829C01D8
S1130850260F371F7801E20EF31EF701E380E1E073
S1130860F0E0EC0FFD1F2E0F3F1FE49E70011124DA
S1130870F901F08203968A34F1E09F0711F64AE405
S113088051E0BE016F5F7F4F05C04AE451E0BC01F7
S11308906D5F7F4FC8010E94B6030E94EA04F8010D
S11308A0E25BFE4F608371838283938380E0C65B47
S11308B0DE4F0FB6F894DEBF0FBECDBFDF91CF91F0
S11308C01F910F91FF90EF90DF90CF9008950F93B9
S11308D01F93CF93DF93EC010E94EA04FE01E25BD5
S11308E0FE4F0081118122813381DC01CB01801B09
S11308F0910BA20BB30BC397A105B10520F4012BF7
S1130900022B032B39F4CE01DF91CF911F910F916C
S11309100C94DA0381E0DF91CF911F910F91089538
S113092008950E940F050E9490040E942C01C0E0CB
S1130930D0E00E942D012097E1F30E940000F9CF3E
S11309401F920F920FB60F9211242F933F938F9300
S11309509F93AF93BF9380915D0290915E02A091AB
S11309605F02B091600230915C0223E0230F2D37C7
S113097020F40196A11DB11D05C026E8230F02969F
S1130980A11DB11D20935C0280935D0290935E02D1
S1130990A0935F02B0936002809161029091620221
S11309A0A0916302B09164020196A11DB11D8093D0
S11309B0610290936202A0936302B0936402BF91B8
S11309C0AF919F918F913F912F910F900FBE0F90F8
S11309D01F9018953FB7F89480916102909162023C
S11309E0A0916302B091640226B5A89B05C02F3F75
S11309F019F00196A11DB11D3FBFBA2FA92F982F41
S1130A008827820F911DA11DB11DBC01CD0142E0BB
S1130A10660F771F881F991F4A95D1F70895789418
S1130A2084B5826084BD84B5816084BD85B58260EF
S1130A3085BD85B5816085BDEEE6F0E0808181608D
S1130A408083E1E8F0E0108280818260808380818D
S1130A5081608083E0E8F0E0808181608083E1EB65
S1130A60F0E0808184608083E0EBF0E0808181604D
S1130A708083EAE7F0E08081846080838081826003
S1130A8080838081816080838081806880831092EC
S1130A90C1000895CF93DF9390E0FC01E752FE4F2D
S1130AA02491FC01E351FE4F8491882361F190E08D
S1130AB0880F991FFC01E55FFD4FC591D491FC019E
S1130AC0EF5FFD4FA591B491611109C09FB7F894F0
S1130AD08881209582238883EC912E230BC0623079
S1130AE061F49FB7F8943881822F8095832388839B
S1130AF0EC912E2B2C939FBF06C08FB7F894E881FE
S1130B002E2B28838FBFDF91CF910895991B79E015
S1130B1004C0991F961708F0961B881F7A95C9F789
S1130B2080950895EE0FFF1F0590F491E02D099430
S1130B30FB01DC0102C005900D9241505040D8F7F2
S1130B40089511E0CCE0D1E004C0FE010E949205BA
S10F0B502196CD30D107C9F7F894FFCFEF
S9030000FC
