S0110000576F7264636C6F636B2E737265636B
S11300000C940D010C942A010C942A010C942A01DD
S11300100C942A010C942A010C942A010C942A01B0
S11300200C942A010C942A010C942A010C942A01A0
S11300300C942A010C942A010C942A010C942A0190
S11300400C94C9040C942A010C942A010C942A01DE
S11300500C942A010C942A010C942A010C942A0170
S11300600C942A010C942A010000000000010003F2
S11300700A000100040A000100080A000101040B3F
S11300800C0101030B0C01010C00000101030A0C1B
S11300900101040A0C0101080B000101040B000119
S11300A001030B0000000000000100030A0001002E
S11300B0040A0001010800000101040B0C01010302
S11300C00B0C01010C00000101030A0C0101040ADC
S11300D00C01010900000101040B000101030B00E4
S11300E000000000000100030A000100040A0001EE
S11300F000080A000100050A000101030B0C0101BC
S11301000C00000101030A0C0101050B00010108A8
S11301100B000101040B000101030B0000000000AF
S1130120000100030A000100040A000101080000A4
S11301300100050A000101030B0C01010C00000180
S113014001030A0C0101050B000101090000010172
S1130150040B000101030B000D1A0F1A0E1A121AD8
S1130160161A131A191A111A171A151A181A141A10
S11301700D0010000E0012001600130019001100EB
S1130180170015001800140000000000000200030E
S1130190030007040100040104070200040204042C
S11301A002040702000B0302040306030400040410
S11301B005050500040502030502040505060601FC
S11301C004060704070003070304070704080104DF
S11301D00805040901050908030102040810204068
S11301E08001020408102001020408102004040401
S11301F004040404040202020202020303030303CC
S11302000300000000250028002B0000000000244B
S11302100027002A00004201580111241FBECFEF1D
S1130220D8E0DEBFCDBF22E0A0E0B1E001C01D9266
S1130230AA37B207E1F711E0CCE0D1E004C021977E
S1130240FE010E94BB05CB30D107C9F70E94BA0456
S11302500C94CA050C94000060E080E091E00E94D8
S113026094014AE06CE080E091E00C94A00180E00D
S113027091E00E94A90180910001909101010196F1
S11302800C94900424E144E164E188E191E00E944B
S11302901D0340E068E171E085E191E00E945202B3
S11302A045E151E068E171E080E091E00C94640183
S11302B080E091E00E94930185E191E00E94570261
S11302C088E191E00C943A03CF92DF92EF92FF928F
S11302D00F931F93CF93DF93CDB7DEB760970FB61D
S11302E0F894DEBF0FBECDBF8C016B017A01CE0145
S11302F001960E94B101CE0101960E94B901F80154
S1130300D182C082F382E28260960FB6F894DEBF97
S11303100FBECDBFDF91CF911F910F91FF90EF9052
S1130320DF90CF9008950895FC016483611107C0A4
S1130330428153816081718105960C94BA010895BC
S1130340FC012481211103C005960C94C20181E0B3
S11303500895FC012481211103C005960C940C021C
S11303600895FC01138212821182108281E0848339
S113037008950895FC01738362835183408382E06E
S1130380848308950F931F93CF93DF9300D01F921C
S1130390CDB7DEB78C019C012B5F3F4FFC01808100
S11303A091810E94C902811104C0F80184818230C4
S11303B011F081E018C0F80114861686658170E09A
S11303C0CB01880F991F680F791F68577E4F43E050
S11303D050E0CE0101960E94C1058B81F80185870A
S11303E083E0848380E00F900F900F90DF91CF9192
S11303F01F910F910895FC0194859F5F973050F4ED
S1130400DF01A90FB11D15968C918823B1F3948750
S113041080E0089581E008950F931F93CF93DF93B5
S113042000D01F92CDB7DEB7FC012481233091F5B3
S11304308C0196858585981700F1CF010E94FB01F8
S1130440813021F482E0F801848324C0F801168607
S11304508485E80FF11D658170E0CB01880F991F39
S1130460680F791F68577E4F43E050E0CE01019634
S11304700E94C1058B81F8018587F80146854F5F8D
S113048046878485E80FF11D6581F8018281938197
S11304900E945A030F900F900F90DF91CF911F91FC
S11304A00F910895FC017183608342830895089538
S11304B0EF92FF920F931F93CF93DF93CDB7DEB7E5
S11304C02A970FB6F894DEBF0FBECDBFFC01F62EFF
S11304D0842F890197E1961708F44DC04C3308F036
S11304E04AC091E0D9019C9395E0E92E6E2D0E94BB
S11304F0AF056281BCE36B9FB0011124E89E600DDF
S1130500711D112468597F4F45E050E0CE010696D5
S11305100E94C105FE013696DE01119601900D92EE
S1130520EA94E1F789816A812C819D813B81F801FC
S1130530338324839583FBE0FF1510F494EFF90EC5
S11305406F0D6C3008F06C5070E0ACE08A9F600D69
S1130550711D1124660F771F685A7E4F42E050E0E8
S1130560CE0106960E94C1059E818F81F801918378
S1130570828380E001C081E02A960FB6F894DEBF42
S11305800FBECDBFDF91CF911F910F91FF90EF90E0
S113059008950F931F93CF93DF9300D000D000D022
S11305A0CDB7DEB789019E012F5F3F4F0E945802ED
S11305B091E0813009F090E08981882331F081E075
S11305C0F801808382E0818303C0F80110821182E4
S11305D08C81F80182838D8183838E8184838A81D7
S11305E085838B818683892F26960FB6F894DEBF88
S11305F00FBECDBFDF91CF911F910F910895CF937F
S1130600DF9300D01F92CDB7DEB790E0BC01660F38
S1130610771F860F971FBC0168577E4F43E050E059
S1130620CE0101960E94C10569817A818B810F9068
S11306300F900F90DF91CF910895FF920F931F9326
S1130640CF93DF93EC01F62E042F122F6AE001966C
S11306500E949E03FE01EA5AFE4FF0823196008307
S11306603196108381E08883DF91CF911F910F91A0
S1130670FF90089501960C947C0340FD02C0862FE0
S113068002C08AE0861B9BE0499F800D11240895D7
S1130690CF93DF93EC010E943D03FE01EA5AFE4F23
S11306A0208131814281682FCE010196DF91CF9163
S11306B00C94C403EF92FF920F931F93CF93DF9395
S11306C08C01862FD42F0E94FF02F62EE72ED11123
S11306D001C0D82FC0E0DC1741F06C2F6E0D4F2DF8
S11306E0C8010E944803CF5FF6CFDF91CF911F91DD
S11306F00F91FF90EF9008950895DC016431E0F4C8
S1130700862F262F30E0F901E752FE4FE491EC9357
S1130710F901E351FE4FE491F0E0EE0FFF1FEF5FAC
S1130720FD4F2591349112963C932E93119761E0DD
S11307300E94730580E0089581E00895CF93DF93CC
S1130740EC010E947D03FE01E35BFE4F8FEF80838B
S113075031961082118212821382EB54F1408AE4A2
S113076091E0DF019C011D9221503040E1F7EF5AE6
S1130770FE4F1082329781E08083CD5ADE4F82E0B3
S11307808883DF91CF910895FC01EE5AFE4F50818A
S1130790FC01E60FF11DBF01E50FF11D2383FC01F0
S11307A0ED5AFE4F2081FB01E20FF11D3383FC0162
S11307B0EC5AFE4F8081FB01E80FF11D438308953D
S11307C03FB7F894FC012081A181B2819C91822FD2
S11307D0809598238C91822BFB01460F571FE417B9
S11307E0F50781F0219168E08C9300C027FF9C936A
S11307F0220F00C000C000C008F49C9300C06A959A
S113080099F7EDCF3FBF08958F929F92AF92BF9219
S1130810CF92DF92EF92FF920F931F93CF93DF93C8
S1130820CDB7DEB7CA54D1400FB6F894DEBF0FBEC1
S1130830CDBF8C01FC01E35BFE4F60816F3F09F487
S113084049C03596208130E03196E080F12C319614
S1130850A0818A2E912CE1E0F0E0EC0FFD1FE20F65
S1130860F31F83E090E0A901480F591F400F511F67
S1130870DA014C91469FA00111245083A701480F2F
S1130880591F400F511FDA01CC90AF01421B530B8B
S11308905A01AE0CBF1C6C9D60011124D501DC9281
S11308A06401C80ED91EC00ED11ED601CC90480DCD
S11308B0591D6C9D60011124DA01DC920396339674
S11308C08D34B1E09B0779F64AE451E0BE016F5FD5
S11308D07F4F05C04AE451E0BC016D5F7F4FC80102
S11308E00E94E0030E941305F801E25BFE4F60835F
S11308F071838283938380E0C65BDE4F0FB6F894E6
S1130900DEBF0FBECDBFDF91CF911F910F91FF903E
S1130910EF90DF90CF90BF90AF909F908F9008950D
S11309200F931F93CF93DF93EC010E941305FE01F5
S1130930E25BFE4F0081118122813381DC01CB0116
S1130940801B910BA20BB30BC397A105B10520F437
S1130950012B022B032B39F4CE01DF91CF911F9190
S11309600F910C94040481E0DF91CF911F910F91BA
S1130970089508950E9438050E94B9040E942C012C
S1130980C0E0D0E00E9437012097E1F30E9400000C
S1130990F9CF1F920F920FB60F9211242F933F930A
S11309A08F939F93AF93BF93809172029091730240
S11309B0A0917402B09175023091710223E0230F6B
S11309C02D3720F40196A11DB11D05C026E8230F83
S11309D00296A11DB11D209371028093720290931F
S11309E07302A0937402B093750280917602909181
S11309F07702A0917802B09179020196A11DB11DF0
S1130A008093760290937702A0937802B093790250
S1130A10BF91AF919F918F913F912F910F900FBEF6
S1130A200F901F9018953FB7F8948091760290919B
S1130A307702A0917802B091790226B5A89B05C0EF
S1130A402F3F19F00196A11DB11D3FBFBA2FA92F49
S1130A50982F8827820F911DA11DB11DBC01CD01C6
S1130A6042E0660F771F881F991F4A95D1F70895B2
S1130A70789484B5826084BD84B5816084BD85B575
S1130A80826085BD85B5816085BDEEE6F0E080813C
S1130A9081608083E1E8F0E010828081826080835D
S1130AA0808181608083E0E8F0E0808181608083E0
S1130AB0E1EBF0E0808184608083E0EBF0E0808112
S1130AC081608083EAE7F0E08081846080838081B4
S1130AD0826080838081816080838081806880835C
S1130AE01092C1000895CF93DF9390E0FC01E75288
S1130AF0FE4F2491FC01E351FE4F8491882361F160
S1130B0090E0880F991FFC01E55FFD4FC591D491DA
S1130B10FC01EF5FFD4FA591B491611109C09FB72E
S1130B20F8948881209582238883EC912E230BC02E
S1130B30623061F49FB7F8948881322F3095832313
S1130B408883EC912E2B2C939FBF06C08FB7F8940B
S1130B50E8812E2B28838FBFDF91CF910895991BB5
S1130B6079E004C0991F961708F0961B881F7A95A0
S1130B70C9F780950895EE0FFF1F0590F491E02DBD
S1130B800994FB01DC0102C005900D9241505040D4
S1130B90D8F7089511E0CCE0D1E004C0FE010E9432
S1110BA0BB052196CD30D107C9F7F894FFCFDD
S9030000FC
