:100000000C940D010C942A010C942A010C942A01E1
:100010000C942A010C942A010C942A010C942A01B4
:100020000C942A010C942A010C942A010C942A01A4
:100030000C942A010C942A010C942A010C942A0194
:100040000C9442030C942A010C942A010C942A016A
:100050000C942A010C942A010C942A010C942A0174
:100060000C942A010C942A010000000000010003F6
:100070000A000100040A000100080A000101040B43
:100080000C0101030B0C01010C00000101030A0C1F
:100090000101040A0C0101080B000101040B00011D
:1000A00001030B0000000000000100030A00010032
:1000B000040A0001010800000101040B0C01010306
:1000C0000B0C01010C00000101030A0C0101040AE0
:1000D0000C01010900000101040B000101030B00E8
:1000E00000000000000100030A000100040A0001F2
:1000F00000080A000100050A000101030B0C0101C0
:100100000C00000101030A0C0101050B00010108AC
:100110000B000101040B000101030B0000000000B3
:10012000000100030A000100040A000101080000A8
:100130000100050A000101030B0C01010C00000184
:1001400001030A0C0101050B000101090000010176
:10015000040B000101030B000D1A0F1A0E1A121ADC
:10016000161A131A191A111A171A151A181A141A14
:100170000D0010000E0012001600130019001100EF
:100180001700150018001400000000000002000312
:100190000300070401000401040702000402040430
:1001A00002040702000B0302040306030400040414
:1001B0000505050004050203050204050506060100
:1001C00004060704070003070304070704080104E3
:1001D000080504090105090803010204081020406C
:1001E0008001020408102001020408102004040405
:1001F00004040404040202020202020303030303D0
:100200000300000000250028002B0000000000244F
:100210000027002A00003301410111241FBECFEF47
:10022000D8E0DEBFCDBF22E0A0E0B1E001C01D926A
:10023000A536B207E1F711E0CCE0D1E004C0219788
:10024000FE010E940F04CB30D107C9F70E9433038F
:100250000C941E040C9400004EE161E180E091E0FA
:100260000C94C701089524E144E164E183E091E046
:100270000E94530240E063E071E080E091E00C9462
:10028000490180E091E00E94520183E091E00C94EA
:1002900075026115710519F0FC0171836083FC0121
:1002A000428308950895EF92FF920F931F93CF9387
:1002B000DF93CDB7DEB72A970FB6F894DEBF0FBE37
:1002C000CDBFFC01F62E890127E181E0261708F455
:1002D00051C04C3308F04EC0D8018C9395E0E92E04
:1002E000842F6E2D0E940304282F9281BCE39B9FD4
:1002F000C0011124E29E800D911D1124BC0168599A
:100300007F4F45E050E0CE0106960E941504FE01A5
:100310003696DE01119601900D92EA94E1F78981FB
:100320009A813C812D814B81F8014383348325835D
:10033000FBE0FF1510F424EFF20E9F0D9C3008F047
:100340009C503CE0839FB0011124690F711D660F22
:10035000771F685A7E4F42E050E0CE0106960E9419
:1003600015049E818F81D80111969C931197129646
:100370008C9380E02A960FB6F894DEBF0FBECDBFF7
:10038000DF91CF911F910F91FF90EF900895AF9261
:10039000BF92CF92DF92EF92FF921F93CF93DF93A2
:1003A00000D000D000D0CDB7DEB76C019E012F5F2A
:1003B0003F4F0E94530111E0813009F010E0898124
:1003C0008823A1F040E061E0F601808191810E94E4
:1003D0009502813009F411E040E062E0F60180818D
:1003E00091810E949502813009F411E05E01F2E0F2
:1003F000AF0EB11C7E0184E0E80EF11CF5016191A5
:100400005F01662361F040E0F601808191810E94E6
:100410009502813009F411E0AE14BF0479F75E0152
:10042000F7E0AF0EB11CF70161917F01662361F027
:1004300040E0F601808191810E949502813009F4AB
:1004400011E0EA14FB0479F7812F26960FB6F89491
:10045000DEBF0FBECDBFDF91CF911F91FF90EF9018
:10046000DF90CF90BF90AF900895CF93DF9300D0EF
:100470001F92CDB7DEB790E0BC01660F771F860FE5
:10048000971FBC0168577E4F43E050E0CE010196B4
:100490000E94150469817A818B810F900F900F90D3
:1004A000DF91CF910895EF92FF921F93CF93DF9347
:1004B00000D0CDB7DEB77C01162F6AE001962A8303
:1004C00049830E94EB02F701EA5AFE4F10833196EE
:1004D0004981408331962A8120830F900F90DF91CC
:1004E000CF911F91FF90EF90089501960C94C9024F
:1004F00040FD02C0862F02C08AE0861B9BE0499F18
:10050000800D11240895CF93DF93EC010E947802AF
:10051000FE01EA5AFE4F208131814281682FCE01CF
:100520000196DF91CF910C941103DF92EF92FF922D
:100530000F931F93CF93DF9300D0CDB7DEB77C012D
:10054000142F6B31D0F4862F0E943502062F111123
:1005500001C0182FD12C20E0D11681F0402F6D2D35
:10056000670FC70129837A830E94830229817A81D8
:10057000813009F421E0D394EFCF21E0822F0F9056
:100580000F90DF91CF911F910F91FF90EF90DF902F
:1005900008950895DC016431E0F4862F262F30E0C1
:1005A000F901E752FE4FE491EC93F901E351FE4F5C
:1005B000E491F0E0EE0FFF1FEF5FFD4F25913491C6
:1005C00012963C932E93119761E00E94C70380E03E
:1005D000089581E00895CF93DF93EC010E94CA0251
:1005E000FE01E35BFE4F8FEF808331961082118214
:1005F00012821382EB54F1408AE491E0DF019C0106
:100600001D9221503040E1F7EF5AFE4F1082329791
:1006100081E08083CD5ADE4F82E08883DF91CF91E5
:1006200008956E36E8F4FC01EE5AFE4F5081FC014D
:10063000E60FF11DBF01E50FF11D2383FC01ED5A0B
:10064000FE4F2081FB01E20FF11D3383FC01EC5AC8
:10065000FE4F8081FB01E80FF11D438380E0089588
:1006600081E0089508950E948C030E9432030E9445
:100670002C01C0E0D0E00E9432012097E1F30E94FB
:100680000000F9CF1F920F920FB60F9211242F93F3
:100690003F938F939F93AF93BF9380915D0290910F
:1006A0005E02A0915F02B091600230915C0223E093
:1006B000230F2D3720F40196A11DB11D05C026E89A
:1006C000230F0296A11DB11D20935C0280935D0251
:1006D00090935E02A0935F02B093600280916102EA
:1006E00090916202A0916302B09164020196A11DF3
:1006F000B11D8093610290936202A0936302B09354
:100700006402BF91AF919F918F913F912F910F9074
:100710000FBE0F901F901895789484B5826084BDA9
:1007200084B5816084BD85B5826085BD85B58160F5
:1007300085BDEEE6F0E0808181608083E1E8F0E055
:100740001082808182608083808181608083E0E884
:10075000F0E0808181608083E1EBF0E08081846063
:100760008083E0EBF0E0808181608083EAE7F0E065
:1007700080818460808380818260808380818160C9
:1007800080838081806880831092C1000895CF9318
:10079000DF9390E0FC01E752FE4F2491FC01E3510E
:1007A000FE4F8491882361F190E0880F991FFC012E
:1007B000E55FFD4FC591D491FC01EF5FFD4FA59121
:1007C000B491611109C09FB7F89488812095822364
:1007D0008883EC912E230BC0623061F49FB7F894AC
:1007E0003881822F809583238883EC912E2B2C9344
:1007F0009FBF06C08FB7F894E8812E2B28838FBF48
:10080000DF91CF910895991B79E004C0991F961745
:1008100008F0961B881F7A95C9F780950895EE0F0A
:10082000FF1F0590F491E02D0994FB01DC0102C04B
:1008300005900D9241505040D8F7089511E0CCE05A
:10084000D1E004C0FE010E940F042196CD30D107F3
:06085000C9F7F894FFCF88
:00000001FF
