:100000000C940D010C942A010C942A010C942A01E1
:100010000C942A010C942A010C942A010C942A01B4
:100020000C942A010C942A010C942A010C942A01A4
:100030000C942A010C942A010C942A010C942A0194
:100040000C9478030C942A010C942A010C942A0134
:100050000C942A010C942A010C942A010C942A0174
:100060000C942A010C942A010000000000010003F6
:100070000A000100040A000100080A000101040B43
:100080000C0101030B0C01010C00000101030A0C1F
:100090000101040A0C0101080B000101040B00011D
:1000A00001030B0000000000000100030A00010032
:1000B000040A0001010800000101040B0C01010306
:1000C0000B0C01010C00000101030A0C0101040AE0
:1000D0000C01010900000101040B000101030B00E8
:1000E00000000000000100030A000100040A0001F2
:1000F00000080A000100050A000101030B0C0101C0
:100100000C00000101030A0C0101050B00010108AC
:100110000B000101040B000101030B0000000000B3
:10012000000100030A000100040A000101080000A8
:100130000100050A000101030B0C01010C00000184
:1001400001030A0C0101050B000101090000010176
:10015000040B000101030B000D1A0F1A0E1A121ADC
:10016000161A131A191A111A171A151A181A141A14
:100170000D0010000E0012001600130019001100EF
:100180001700150018001400000000000002000312
:100190000300070401000401040702000402040430
:1001A00002040702000B0302040306030400040414
:1001B0000505050004050203050204050506060100
:1001C00004060704070003070304070704080104E3
:1001D000080504090105090803010204081020406C
:1001E0008001020408102001020408102004040405
:1001F00004040404040202020202020303030303D0
:100200000300000000250028002B0000000000244F
:100210000027002A00004101450111241FBECFEF35
:10022000D8E0DEBFCDBF22E0A0E0B1E001C01D926A
:10023000A836B207E1F711E0CCE0D1E004C0219785
:10024000FE010E946A04CB30D107C9F70E946903FE
:100250000C9479040C9400000895409100016AE028
:1002600082E091E00E947201809100019091010171
:100270000196909301018093000185E091E00C9438
:10028000B80285E091E00C94490185E091E00C947E
:100290004C016AE00C944D020C941C0260FD02C0FB
:1002A000842F02C08AE0841B9BE0699F800D11248B
:1002B0000895CF93DF936A3088F44B3078F4EC01E3
:1002C0000E944E01FE01E95AFE4F20813181428198
:1002D000682FCE010E94730280E001C081E0DF91AF
:1002E000CF910895CF92DF92EF92FF920F931F93D9
:1002F000CF93DF93CDB7DEB727970FB6F894DEBF65
:100300000FBECDBF8C01F62EE42E45E08E2D642F5E
:100310000E945E04F8012081FCE32F9F90011124CC
:10032000489F200D311D1124B90168597F4F45E0C8
:1003300050E0CE0101960E94700429818CE0289F34
:10034000900111242F0D311D220F331FB901685A5E
:100350007E4F6E0196E0C90ED11C42E050E0C6010E
:100360000E947004E7E1EF1550F1FBE3FE1538F150
:100370000F5F1F4F61E0C8010E94EF0162E0C801FA
:100380000E94EF017E0183E0E80EF11CF70161910C
:100390007F01662331F0C8010E94EF01EC14FD04D7
:1003A000A9F76E81662349F0C8010E94EF016F81B1
:1003B000662319F0C8010E94EF0180E001C081E0CE
:1003C00027960FB6F894DEBF0FBECDBFDF91CF9159
:1003D0001F910F91FF90EF90DF90CF900895EF92D3
:1003E000FF920F931F93CF93DF938C0170E0FB017B
:1003F000EE0FFF1F6E0F7F1FFB01E857FE4FF490BB
:10040000FB01E757FE4FE490FB01E657FE4FC49116
:10041000D0E0DC1751F06D2F6F0D4E2DF80180816B
:1004200091810E945901DF5FF4CFDF91CF911F913D
:100430000F91FF90EF9008950895DC01643158F515
:10044000862F262F30E0F901E752FE4FE491EC931E
:1004500023513E4FF9019491E92FF0E0EE0FFF1F79
:10046000EF5FFD4F4591549112965C934E93119717
:10047000F9012491E22FF0E0EE0FFF1FE55FFD4F41
:100480002591349114963C932E93139761E00E942A
:10049000220480E0089581E00895CF93DF93EC017A
:1004A0000E941D02FE01E15BFE4F8FEF80833196BB
:1004B0001082118212821382EB54F1408AE491E09F
:1004C000DF019C011D9221503040E1F7EF5AFE4FB1
:1004D0001082329781E08083CB5ADE4F82E088839E
:1004E000DF91CF9108956E36E8F4FC01EC5AFE4F8F
:1004F0005081FC01E60FF11DBF01E50FF11D2583C1
:10050000FC01EB5AFE4F2081FB01E20FF11D358308
:10051000FC01EA5AFE4F8081FB01E80FF11D458383
:1005200080E0089581E00895FC012FB7F894908150
:10053000A181B2813C91892F809583233C91932B9B
:10054000FB01460F571FE417F50781F0319168E072
:100550009C9300C037FF8C93330F00C000C000C0D5
:1005600008F48C9300C06A9599F7EDCF2FBF0895DA
:100570008F929F92AF92BF92CF92DF92EF92FF92B3
:100580000F931F93CF93DF93CDB7DEB7CA54D140FB
:100590000FB6F894DEBF0FBECDBF8C010E94C20320
:1005A000780120EBE21A2EEFF20AF70180809180A9
:1005B000A280B380DC01CB0188199909AA09BB0983
:1005C000C397A105B10530F489288A288B2811F03A
:1005D00081E06AC0F801E15BFE4F20812F3F89F482
:1005E000B8016B5F7F4F4AE451E0C8010E9494025A
:1005F0000E94C203F701608371838283938380E04A
:1006000053C03596A081B0E03196E081AE2EB12C7A
:10061000C8018A5A9E4FFC01608170E080E090E042
:10062000AC014A0F5B1F6801C40ED51EF601C580E0
:10063000E1E0F0E0EC0FFD1F4E0F5F1FC29E600176
:100640001124FA01D082AC014A0D5B1D6801C40E71
:10065000D51EF601C580E1E0F0E0EC0FFD1F4E0F66
:100660005F1FC29E60011124FA01D082AC01460FC7
:10067000571F6801C40ED51EF601C580E1E0F0E009
:10068000EC0FFD1F4E0F5F1FC29E60011124FA0187
:10069000D08203968A34F1E09F0711F64AE451E0D4
:1006A000BE016F5F7F4FA1CFC65BDE4F0FB6F894E0
:1006B000DEBF0FBECDBFDF91CF911F910F91FF9095
:1006C000EF90DF90CF90BF90AF909F908F90089564
:1006D00008950E94E7030E9468030E942C01C0E075
:1006E000D0E00E942D012097E1F30E940000F9CF95
:1006F0001F920F920FB60F9211242F933F938F9357
:100700009F93AF93BF938091600290916102A091FB
:100710006202B091630230915F0223E0230F2D3714
:1007200020F40196A11DB11D05C026E8230F0296F5
:10073000A11DB11D20935F0280936002909361021E
:10074000A0936202B093630280916402909165026B
:10075000A0916602B09167020196A11DB11D809320
:10076000640290936502A0936602B0936702BF9102
:10077000AF919F918F913F912F910F900FBE0F904E
:100780001F9018953FB7F89480916402909165028C
:10079000A0916602B091670226B5A89B05C02F3FC5
:1007A00019F00196A11DB11D3FBFBA2FA92F982F97
:1007B0008827820F911DA11DB11DBC01CD0142E012
:1007C000660F771F881F991F4A95D1F7089578946F
:1007D00084B5826084BD84B5816084BD85B5826046
:1007E00085BD85B5816085BDEEE6F0E080818160E4
:1007F0008083E1E8F0E010828081826080838081E4
:1008000081608083E0E8F0E0808181608083E1EBBB
:10081000F0E0808184608083E0EBF0E080818160A3
:100820008083EAE7F0E08081846080838081826059
:100830008083808181608083808180688083109242
:10084000C1000895CF93DF9390E0FC01E752FE4F83
:100850002491FC01E351FE4F8491882361F190E0E3
:10086000880F991FFC01E55FFD4FC591D491FC01F4
:10087000EF5FFD4FA591B491611109C09FB7F89446
:100880008881209582238883EC912E230BC06230CF
:1008900061F49FB7F8943881822F809583238883F1
:1008A000EC912E2B2C939FBF06C08FB7F894E88154
:1008B0002E2B28838FBFDF91CF910895991B79E06C
:1008C00004C0991F961708F0961B881F7A95C9F7E0
:1008D00080950895EE0FFF1F0590F491E02D099487
:1008E000FB01DC0102C005900D9241505040D8F749
:1008F000089511E0CCE0D1E004C0FE010E946A043A
:0C0900002196CD30D107C9F7F894FFCF45
:00000001FF
