S0110000576F7264636C6F636B2E737265636B
S11300000C947D000C949A000C949A000C949A0021
S11300100C949A000C949A000C949A000C949A00F4
S11300200C949A000C949A000C949A000C949A00E4
S11300300C949A000C949A000C949A000C949A00D4
S11300400C9438020C949A000C949A000C949A0024
S11300500C949A000C949A000C949A000C949A00B4
S11300600C949A000C949A00000000000002000313
S1130070030007040100040104070200040204044D
S113008002040702000B0302040306030400040431
S1130090050505000405020305020405050606011D
S11300A00406070407000307030407070408010400
S11300B00805040901050908030102040810204089
S11300C08001020408102001020408102004040422
S11300D004040404040202020202020303030303ED
S11300E00300000000250028002B0000000000246D
S11300F00027002A0000BF00C30011241FBECFEF59
S1130100D8E0DEBFCDBF22E0A0E0B1E001C01D9287
S1130110A536B207E1F710E0CCE7D0E004C02197A0
S1130120FE010E94F902CB37D107C9F70E942902C8
S11301300C94FF020C940000209157023091580255
S11301404091590261E180E091E00E94E40169E09C
S113015080E091E00E94F00080E091E00E9476014E
S1130160811107C081E090E090935B0280935A0272
S1130170089510925B0210925A020895089580E047
S113018091E00C94C70080E091E00C94CA006AE00E
S11301900C94BE010C948D0160FD02C0842F02C03A
S11301A08AE0841B9BE0699F800D11240895CF93FE
S11301B0DF936A3088F44B3078F4EC010E94CC0071
S11301C0FE01E95AFE4F208131814281682FCE0120
S11301D00E94E40180E001C081E0DF91CF910895A5
S11301E0DF92EF92FF920F931F93CF93DF936B31C4
S11301F018F58C0170E0FB01EE0FFF1F6E0F7F1FDF
S1130200FB01E859FF4FE490FB01E759FF4FD490FD
S1130210FB01E659FF4FC491D0E0F12CDC1771F0DB
S11302204D2D6D2F6E0DC8010E94D700813011F441
S1130230FF24F394DF5FF2CFFF24F3948F2DDF913B
S1130240CF911F910F91FF90EF90DF9008950F933E
S1130250CF93DF936A3070F44B3060F4EC010E946A
S1130260CC0000E020E040E0682FCE010E940502AF
S113027080E001C081E0DF91CF910F910895DF927A
S1130280EF92FF920F931F93CF93DF936B3118F587
S11302908C0170E0FB01EE0FFF1F6E0F7F1FFB014F
S11302A0E859FF4FE490FB01E759FF4FD490FB015D
S11302B0E659FF4FC491D0E0F12CCD1771F04D2DCC
S11302C04D0F6E2DC8010E942701813011F4FF24C7
S11302D0F394DF5FF2CFFF24F3948F2DDF91CF915E
S11302E01F910F91FF90EF90DF9008950F931F934C
S11302F0CF93DF938C01C1E0D0E06C2FC8010E9442
S11303003F01813009F4D1E0CF5FCB31B1F78D2FBC
S1130310DF91CF911F910F9108950895DC0164310D
S113032058F5862F262F30E0F901E754FF4FE4916A
S1130330EC9323533F4FF9019491E92FF0E0EE0F32
S1130340FF1FEF51FF4F4591549112965C934E93CA
S11303501197F9012491E22FF0E0EE0FFF1FE55110
S1130360FF4F2591349114963C932E93139761E09B
S11303700E94BD0280E0089581E00895CF93DF9349
S1130380EC010E948E01FE01E15BFE4F8FEF808342
S113039031961082118212821382EB54F1408AE466
S11303A091E0DF019C011D9221503040E1F7EF5AAA
S11303B0FE4F1082329781E08083CB5ADE4F82E079
S11303C08883DF91CF9108956E36E8F4FC01EC5AEE
S11303D0FE4F5081FC01E60FF11DBF01E50FF11D39
S11303E02583FC01EB5AFE4F2081FB01E20FF11D36
S11303F03583FC01EA5AFE4F8081FB01E80FF11DB1
S1130400458380E0089581E008950F936E36E8F403
S1130410FC01EC5AFE4F3081FC01E60FF11DBF01D7
S1130420E30FF11D4583FC01EB5AFE4F3081FB01C4
S1130430E30FF11D2583FC01EA5AFE4F8081FB0185
S1130440E80FF11D058380E001C081E00F9108955C
S113045008950E9482020E9428020E949C00C0E02B
S1130460D0E00E94BE002097E1F30E940000F9CF83
S11304701F920F920FB60F9211242F933F938F93D5
S11304809F93AF93BF9380915D0290915E02A09180
S11304905F02B091600230915C0223E0230F2D379C
S11304A020F40196A11DB11D05C026E8230F029674
S11304B0A11DB11D20935C0280935D0290935E02A6
S11304C0A0935F02B09360028091610290916202F6
S11304D0A0916302B09164020196A11DB11D8093A5
S11304E0610290936202A0936302B0936402BF918D
S11304F0AF919F918F913F912F910F900FBE0F90CD
S11305001F901895789484B5826084BD84B5816009
S113051084BD85B5826085BD85B5816085BDEEE607
S1130520F0E0808181608083E1E8F0E010828081E6
S113053082608083808181608083E0E8F0E0808154
S113054081608083E1EBF0E0808184608083E0EB74
S1130550F0E0808181608083EAE7F0E0808184605C
S113056080838081826080838081816080838081B8
S1130570806880831092C1000895CF93DF9390E048
S1130580FC01E754FF4F2491FC01E353FF4F849196
S1130590882361F190E0880F991FFC01E551FF4F1A
S11305A0C591D491FC01EF51FF4FA591B491611114
S11305B009C09FB7F8948881209582238883EC91A1
S11305C02E230BC0623061F49FB7F8948881322FD8
S11305D0309583238883EC912E2B2C939FBF06C0E8
S11305E08FB7F894E8812E2B28838FBFDF91CF91AA
S11305F00895EE0FFF1F0590F491E02D099410E08B
S1130600CCE7D0E004C0FE010E94F9022196CD3768
S10B0610D107C9F7F894FFCFEC
S9030000FC
