S0110000576F7264636C6F636B2E737265636B
S11300000C940D010C942A010C942A010C942A01DD
S11300100C942A010C942A010C942A010C942A01B0
S11300200C942A010C942A010C942A010C942A01A0
S11300300C942A010C942A010C942A010C942A0190
S11300400C94FA020C942A010C942A010C942A01AF
S11300500C942A010C942A010C942A010C942A0170
S11300600C942A010C942A010000000000010003F2
S11300700A000100040A000100080A000101040B3F
S11300800C0101030B0C01010C00000101030A0C1B
S11300900101040A0C0101080B000101040B000119
S11300A001030B0000000000000100030A0001002E
S11300B0040A0001010800000101040B0C01010302
S11300C00B0C01010C00000101030A0C0101040ADC
S11300D00C01010900000101040B000101030B00E4
S11300E000000000000100030A000100040A0001EE
S11300F000080A000100050A000101030B0C0101BC
S11301000C00000101030A0C0101050B00010108A8
S11301100B000101040B000101030B0000000000AF
S1130120000100030A000100040A000101080000A4
S11301300100050A000101030B0C01010C00000180
S113014001030A0C0101050B000101090000010172
S1130150040B000101030B000D1A0F1A0E1A121AD8
S1130160161A131A191A111A171A151A181A141A10
S11301700D0010000E0012001600130019001100EB
S1130180170015001800140000000000000200030E
S1130190030007040100040104070200040204042C
S11301A002040702000B0302040306030400040410
S11301B005050500040502030502040505060601FC
S11301C004060704070003070304070704080104DF
S11301D00805040901050908030102040810204068
S11301E08001020408102001020408102004040401
S11301F004040404040202020202020303030303CC
S11302000300000000250028002B0000000000244B
S11302100027002A00003301450111241FBECFEF3F
S1130220D8E0DEBFCDBF22E0A0E0B1E001C01D9266
S1130230A836B207E1F711E0CCE0D1E004C0219781
S1130240FE010E94C703CB30D107C9F70E94EB021D
S11302500C94D6030C9400004EE161E183E091E03C
S11302600C945D01089524E144E164E186E091E0A9
S11302700E94020240E066E071E083E091E00E94A7
S1130280530180E091E00C94510180E091E00E94E0
S1130290520183E091E00E945C0186E091E00C94BD
S11302A02402089508956115710519F0FC01718304
S11302B06083FC01428308950895AF92BF92CF9268
S11302C0DF92EF92FF920F931F93CF93DF93CDB7FB
S11302D0DEB728970FB6F894DEBF0FBECDBF8C01F2
S11302E0C62E67E16C1508F479C04C3308F076C06B
S11302F061E0FC018081918148870E944C02F82EC4
S113030062E0F801808191810E944C024885DD24DD
S1130310D394813011F0FD10D12C55E0842F652F3A
S11303200E94BB03F8012281FCE32F9F900111245A
S1130330B901589F600D711D112468597F4F45E024
S113034050E0CE0101960E94CD035E0173E0A70E3A
S1130350B11C7E0186E0E80EF11CF50161915F019C
S1130360662361F0F801808191810E944C02813002
S113037011F4DD24D394AE14BF0479F7FBE0FC152B
S113038010F464EFC60E8A818C0D8C3008F08C500A
S113039069819CE0699FB0011124680F711D660F8B
S11303A0771F685A7E4F42E050E0C7010E94CD0398
S11303B06E816623A9F0F801808191810E944C022C
S11303C0813011F4DD24D3946F81662349F0F80160
S11303D0808191810E944C02813011F4DD24D394F8
S11303E08D2D28960FB6F894DEBF0FBECDBFDF91DA
S11303F0CF911F910F91FF90EF90DF90CF90BF901E
S1130400AF900895EF92FF921F93CF93DF9300D0A4
S1130410CDB7DEB77C01162F6AE001962A834983A3
S11304200E94A302F701EA5AFE4F108331964981D4
S1130430408331962A8120830F900F90DF91CF91D2
S11304401F91FF90EF90089501960C94810240FD56
S113045002C0862F02C08AE0861B9BE0499F800D64
S113046011240895CF93DF934A3090F46B3080F4D5
S1130470EC010E942702FE01EA5AFE4F20813181DD
S11304804281682FCE010196DF91CF910C94C9026D
S113049081E0DF91CF910895DF92EF92FF920F9365
S11304A01F93CF93DF936B3110F57C0170E0FB0158
S11304B0EE0FFF1F6E0F7F1FFB01E857FE4F0491E5
S11304C0FB01E757FE4FD490FB01E657FE4FC49162
S11304D0D0E010E0DC1761F0402F6D2F6D0DC701E7
S11304E00E943202813009F411E0DF5FF3CF11E0A2
S11304F0812FDF91CF911F910F91FF90EF90DF90AB
S113050008950895DC016431E0F4862F262F30E04D
S1130510F901E752FE4FE491EC93F901E351FE4FE8
S1130520E491F0E0EE0FFF1FEF5FFD4F2591349152
S113053012963C932E93119761E00E947F0380E012
S1130540089581E00895CF93DF93EC010E94820225
S1130550FE01E35BFE4F8FEF8083319610821182A0
S113056012821382EB54F1408AE491E0DF019C0192
S11305701D9221503040E1F7EF5AFE4F108232971E
S113058081E08083CD5ADE4F82E08883DF91CF9172
S113059008956E36E8F4FC01EE5AFE4F5081FC01DA
S11305A0E60FF11DBF01E50FF11D2383FC01ED5A98
S11305B0FE4F2081FB01E20FF11D3383FC01EC5A55
S11305C0FE4F8081FB01E80FF11D438380E0089515
S11305D081E0089508950E9444030E94EA020E9463
S11305E02C01C0E0D0E00E9432012097E1F30E9488
S11305F00000F9CF1F920F920FB60F9211242F9380
S11306003F938F939F93AF93BF9380916002909198
S11306106102A0916202B091630230915F0223E013
S1130620230F2D3720F40196A11DB11D05C026E826
S1130630230F0296A11DB11D20935F0280936002D7
S113064090936102A0936202B0936302809164026A
S113065090916502A0916602B09167020196A11D76
S1130660B11D8093640290936502A0936602B093D7
S11306706702BF91AF919F918F913F912F910F90FE
S11306800FBE0F901F901895789484B5826084BD36
S113069084B5816084BD85B5826085BD85B5816082
S11306A085BDEEE6F0E0808181608083E1E8F0E0E2
S11306B01082808182608083808181608083E0E811
S11306C0F0E0808181608083E1EBF0E080818460F0
S11306D08083E0EBF0E0808181608083EAE7F0E0F2
S11306E08081846080838081826080838081816056
S11306F080838081806880831092C1000895CF93A5
S1130700DF9390E0FC01E752FE4F2491FC01E3519A
S1130710FE4F8491882361F190E0880F991FFC01BA
S1130720E55FFD4FC591D491FC01EF5FFD4FA591AD
S1130730B491611109C09FB7F894888120958223F0
S11307408883EC912E230BC0623061F49FB7F89438
S11307503881822F809583238883EC912E2B2C93D0
S11307609FBF06C08FB7F894E8812E2B28838FBFD4
S1130770DF91CF910895991B79E004C0991F9617D2
S113078008F0961B881F7A95C9F780950895EE0F97
S1130790FF1F0590F491E02D0994FB01DC0102C0D8
S11307A005900D9241505040D8F7089511E0CCE0E7
S11307B0D1E004C0FE010E94C7032196CD30D107C9
S10907C0C9F7F894FFCF15
S9030000FC
