S0110000576F7264636C6F636B2E737265636B
S11300000C947D000C949A000C949A000C949A0021
S11300100C949A000C949A000C949A000C949A00F4
S11300200C949A000C949A000C949A000C949A00E4
S11300300C949A000C949A000C949A000C949A00D4
S11300400C949A010C949A000C949A000C949A00C3
S11300500C949A000C949A000C949A000C949A00B4
S11300600C949A000C949A00000000000002000313
S1130070030007040100040104070200040204044D
S113008002040702000B0302040306030400040431
S1130090050505000405020305020405050606011D
S11300A00406070407000307030407070408010400
S11300B00805040901050908030102040810204089
S11300C08001020408102001020408102004040422
S11300D004040404040202020202020303030303ED
S11300E00300000000250028002B0000000000246D
S11300F00027002A0000A700AB0011241FBECFEF89
S1130100D8E0DEBFCDBF22E0A0E0B1E001C01D9287
S1130110A336B207E1F710E0CCE7D0E004C02197A2
S1130120FE010E946702CB37D107C9F70E948B01F9
S11301300C946D020C94000061E180E091E00E9457
S11301400D0169E080E091E00C94D800089580E00E
S113015091E00C94AF0080E091E00C94B2006AE06E
S11301600C9443010C94120160FD02C0842F02C060
S11301708AE0841B9BE0699F800D11240895CF932E
S1130180DF936A3088F44B3078F4EC010E94B400B9
S1130190FE01E95AFE4F208131814281682FCE0150
S11301A00E94690180E001C081E0DF91CF91089550
S11301B0EF92FF920F931F93CF93DF938C0170E024
S11301C0FB01EE0FFF1F6E0F7F1FFB01E859FF4F6E
S11301D0F490FB01E759FF4FE490FB01E659FF4F10
S11301E0C491D0E0DC1741F06D2F6F0D4E2DC80186
S11301F00E94BF00DF5FF6CFDF91CF911F910F9177
S1130200FF90EF9008959C01862F6BE00E945B02A3
S1130210492F682FC9010C94BF006E3610F40C945A
S1130220030108950895DC01643158F5862F262FC3
S113023030E0F901E754FF4FE491EC9323533F4F2F
S1130240F9019491E92FF0E0EE0FFF1FEF51FF4FFA
S11302504591549112965C934E931197F901249110
S1130260E22FF0E0EE0FFF1FE551FF4F259134918F
S113027014963C932E93139761E00E941F0280E032
S1130280089581E00895CF93DF93EC010E94130158
S1130290FE01E15BFE4F8FEF808331961082118265
S11302A012821382EB54F1408AE491E0DF019C0155
S11302B01D9221503040E1F7EF5AFE4F10823297E1
S11302C081E08083CB5ADE4F82E08883DF91CF9137
S11302D008956E36E8F4FC01EC5AFE4F5081FC019F
S11302E0E60FF11DBF01E50FF11D2583FC01EB5A5B
S11302F0FE4F2081FB01E20FF11D3583FC01EA5A18
S1130300FE4F8081FB01E80FF11D458380E00895D5
S113031081E0089508950E94E4010E948A010E94E8
S11303209C00C0E0D0E00E94A6002097E1F30E9468
S11303300000F9CF1F920F920FB60F9211242F9342
S11303403F938F939F93AF93BF9380915B02909160
S11303505C02A0915D02B0915E0230915A0223E0EA
S1130360230F2D3720F40196A11DB11D05C026E8E9
S1130370230F0296A11DB11D20935A0280935B02A4
S113038090935C02A0935D02B0935E0280915F0241
S113039090916002A0916102B09162020196A11D48
S11303A0B11D80935F0290936002A0936102B093A9
S11303B06202BF91AF919F918F913F912F910F90C6
S11303C00FBE0F901F901895789484B5826084BDF9
S11303D084B5816084BD85B5826085BD85B5816045
S11303E085BDEEE6F0E0808181608083E1E8F0E0A5
S11303F01082808182608083808181608083E0E8D4
S1130400F0E0808181608083E1EBF0E080818460B2
S11304108083E0EBF0E0808181608083EAE7F0E0B4
S11304208081846080838081826080838081816018
S113043080838081806880831092C1000895CF9367
S1130440DF9390E0FC01E754FF4F2491FC01E35358
S1130450FF4F8491882361F190E0880F991FFC017C
S1130460E551FF4FC591D491FC01EF51FF4FA59188
S1130470B491611109C09FB7F894888120958223B3
S11304808883EC912E230BC0623061F49FB7F894FB
S11304903881822F809583238883EC912E2B2C9393
S11304A09FBF06C08FB7F894E8812E2B28838FBF97
S11304B0DF91CF910895991B79E004C0991F961795
S11304C008F0961B881F7A95C9F780950895EE0F5A
S11304D0FF1F0590F491E02D099410E0CCE7D0E0E3
S11304E004C0FE010E9467022196CD37D107C9F7E7
S10704F0F894FFCFAA
S9030000FC
